{
  "_format": "hh-sol-artifact-1",
  "contractName": "WhiteListNFT",
  "sourceName": "contracts/WhiteListNFT.sol",
  "abi": [
    {
      "inputs": [
        {
          "internalType": "string",
          "name": "_name",
          "type": "string"
        },
        {
          "internalType": "string",
          "name": "_symbol",
          "type": "string"
        },
        {
          "internalType": "uint256",
          "name": "_phaseDuration",
          "type": "uint256"
        }
      ],
      "stateMutability": "nonpayable",
      "type": "constructor"
    },
    {
      "inputs": [],
      "name": "WhiteListNFT__senderNotEligibleForMinting",
      "type": "error"
    },
    {
      "anonymous": false,
      "inputs": [
        {
          "indexed": true,
          "internalType": "address",
          "name": "owner",
          "type": "address"
        },
        {
          "indexed": true,
          "internalType": "address",
          "name": "approved",
          "type": "address"
        },
        {
          "indexed": true,
          "internalType": "uint256",
          "name": "tokenId",
          "type": "uint256"
        }
      ],
      "name": "Approval",
      "type": "event"
    },
    {
      "anonymous": false,
      "inputs": [
        {
          "indexed": true,
          "internalType": "address",
          "name": "owner",
          "type": "address"
        },
        {
          "indexed": true,
          "internalType": "address",
          "name": "operator",
          "type": "address"
        },
        {
          "indexed": false,
          "internalType": "bool",
          "name": "approved",
          "type": "bool"
        }
      ],
      "name": "ApprovalForAll",
      "type": "event"
    },
    {
      "anonymous": false,
      "inputs": [
        {
          "indexed": true,
          "internalType": "address",
          "name": "previousOwner",
          "type": "address"
        },
        {
          "indexed": true,
          "internalType": "address",
          "name": "newOwner",
          "type": "address"
        }
      ],
      "name": "OwnershipTransferred",
      "type": "event"
    },
    {
      "anonymous": false,
      "inputs": [
        {
          "indexed": true,
          "internalType": "address",
          "name": "from",
          "type": "address"
        },
        {
          "indexed": true,
          "internalType": "address",
          "name": "to",
          "type": "address"
        },
        {
          "indexed": true,
          "internalType": "uint256",
          "name": "tokenId",
          "type": "uint256"
        }
      ],
      "name": "Transfer",
      "type": "event"
    },
    {
      "inputs": [
        {
          "internalType": "address",
          "name": "_address",
          "type": "address"
        }
      ],
      "name": "addToWhiteList",
      "outputs": [],
      "stateMutability": "nonpayable",
      "type": "function"
    },
    {
      "inputs": [
        {
          "internalType": "address",
          "name": "to",
          "type": "address"
        },
        {
          "internalType": "uint256",
          "name": "tokenId",
          "type": "uint256"
        }
      ],
      "name": "approve",
      "outputs": [],
      "stateMutability": "nonpayable",
      "type": "function"
    },
    {
      "inputs": [
        {
          "internalType": "address",
          "name": "owner",
          "type": "address"
        }
      ],
      "name": "balanceOf",
      "outputs": [
        {
          "internalType": "uint256",
          "name": "",
          "type": "uint256"
        }
      ],
      "stateMutability": "view",
      "type": "function"
    },
    {
      "inputs": [
        {
          "internalType": "uint256",
          "name": "tokenId",
          "type": "uint256"
        }
      ],
      "name": "getApproved",
      "outputs": [
        {
          "internalType": "address",
          "name": "",
          "type": "address"
        }
      ],
      "stateMutability": "view",
      "type": "function"
    },
    {
      "inputs": [],
      "name": "getPhaseDuration",
      "outputs": [
        {
          "internalType": "uint256",
          "name": "",
          "type": "uint256"
        }
      ],
      "stateMutability": "view",
      "type": "function"
    },
    {
      "inputs": [
        {
          "internalType": "address",
          "name": "owner",
          "type": "address"
        },
        {
          "internalType": "address",
          "name": "operator",
          "type": "address"
        }
      ],
      "name": "isApprovedForAll",
      "outputs": [
        {
          "internalType": "bool",
          "name": "",
          "type": "bool"
        }
      ],
      "stateMutability": "view",
      "type": "function"
    },
    {
      "inputs": [
        {
          "internalType": "address",
          "name": "_to",
          "type": "address"
        }
      ],
      "name": "mintNFT",
      "outputs": [],
      "stateMutability": "nonpayable",
      "type": "function"
    },
    {
      "inputs": [],
      "name": "mintingStartTime",
      "outputs": [
        {
          "internalType": "uint256",
          "name": "",
          "type": "uint256"
        }
      ],
      "stateMutability": "view",
      "type": "function"
    },
    {
      "inputs": [],
      "name": "name",
      "outputs": [
        {
          "internalType": "string",
          "name": "",
          "type": "string"
        }
      ],
      "stateMutability": "view",
      "type": "function"
    },
    {
      "inputs": [],
      "name": "owner",
      "outputs": [
        {
          "internalType": "address",
          "name": "",
          "type": "address"
        }
      ],
      "stateMutability": "view",
      "type": "function"
    },
    {
      "inputs": [
        {
          "internalType": "uint256",
          "name": "tokenId",
          "type": "uint256"
        }
      ],
      "name": "ownerOf",
      "outputs": [
        {
          "internalType": "address",
          "name": "",
          "type": "address"
        }
      ],
      "stateMutability": "view",
      "type": "function"
    },
    {
      "inputs": [],
      "name": "phaseDuration",
      "outputs": [
        {
          "internalType": "uint256",
          "name": "",
          "type": "uint256"
        }
      ],
      "stateMutability": "view",
      "type": "function"
    },
    {
      "inputs": [
        {
          "internalType": "address",
          "name": "_address",
          "type": "address"
        }
      ],
      "name": "removeFromWhiteList",
      "outputs": [],
      "stateMutability": "nonpayable",
      "type": "function"
    },
    {
      "inputs": [],
      "name": "renounceOwnership",
      "outputs": [],
      "stateMutability": "nonpayable",
      "type": "function"
    },
    {
      "inputs": [
        {
          "internalType": "address",
          "name": "from",
          "type": "address"
        },
        {
          "internalType": "address",
          "name": "to",
          "type": "address"
        },
        {
          "internalType": "uint256",
          "name": "tokenId",
          "type": "uint256"
        }
      ],
      "name": "safeTransferFrom",
      "outputs": [],
      "stateMutability": "nonpayable",
      "type": "function"
    },
    {
      "inputs": [
        {
          "internalType": "address",
          "name": "from",
          "type": "address"
        },
        {
          "internalType": "address",
          "name": "to",
          "type": "address"
        },
        {
          "internalType": "uint256",
          "name": "tokenId",
          "type": "uint256"
        },
        {
          "internalType": "bytes",
          "name": "data",
          "type": "bytes"
        }
      ],
      "name": "safeTransferFrom",
      "outputs": [],
      "stateMutability": "nonpayable",
      "type": "function"
    },
    {
      "inputs": [
        {
          "internalType": "address",
          "name": "operator",
          "type": "address"
        },
        {
          "internalType": "bool",
          "name": "approved",
          "type": "bool"
        }
      ],
      "name": "setApprovalForAll",
      "outputs": [],
      "stateMutability": "nonpayable",
      "type": "function"
    },
    {
      "inputs": [
        {
          "internalType": "bytes4",
          "name": "interfaceId",
          "type": "bytes4"
        }
      ],
      "name": "supportsInterface",
      "outputs": [
        {
          "internalType": "bool",
          "name": "",
          "type": "bool"
        }
      ],
      "stateMutability": "view",
      "type": "function"
    },
    {
      "inputs": [],
      "name": "symbol",
      "outputs": [
        {
          "internalType": "string",
          "name": "",
          "type": "string"
        }
      ],
      "stateMutability": "view",
      "type": "function"
    },
    {
      "inputs": [
        {
          "internalType": "uint256",
          "name": "tokenId",
          "type": "uint256"
        }
      ],
      "name": "tokenURI",
      "outputs": [
        {
          "internalType": "string",
          "name": "",
          "type": "string"
        }
      ],
      "stateMutability": "view",
      "type": "function"
    },
    {
      "inputs": [
        {
          "internalType": "address",
          "name": "from",
          "type": "address"
        },
        {
          "internalType": "address",
          "name": "to",
          "type": "address"
        },
        {
          "internalType": "uint256",
          "name": "tokenId",
          "type": "uint256"
        }
      ],
      "name": "transferFrom",
      "outputs": [],
      "stateMutability": "nonpayable",
      "type": "function"
    },
    {
      "inputs": [
        {
          "internalType": "address",
          "name": "newOwner",
          "type": "address"
        }
      ],
      "name": "transferOwnership",
      "outputs": [],
      "stateMutability": "nonpayable",
      "type": "function"
    }
  ],
  "bytecode": "0x60a06040523480156200001157600080fd5b506040516200329638038062003296833981810160405281019062000037919062000333565b828281600090816200004a91906200060e565b5080600190816200005c91906200060e565b5050506200007f620000736200009760201b60201c565b6200009f60201b60201c565b806080818152505042600981905550505050620006f5565b600033905090565b6000600660009054906101000a900473ffffffffffffffffffffffffffffffffffffffff16905081600660006101000a81548173ffffffffffffffffffffffffffffffffffffffff021916908373ffffffffffffffffffffffffffffffffffffffff1602179055508173ffffffffffffffffffffffffffffffffffffffff168173ffffffffffffffffffffffffffffffffffffffff167f8be0079c531659141344cd1fd0a4f28419497f9722a3daafe3b4186f6b6457e060405160405180910390a35050565b6000604051905090565b600080fd5b600080fd5b600080fd5b600080fd5b6000601f19601f8301169050919050565b7f4e487b7100000000000000000000000000000000000000000000000000000000600052604160045260246000fd5b620001ce8262000183565b810181811067ffffffffffffffff82111715620001f057620001ef62000194565b5b80604052505050565b60006200020562000165565b9050620002138282620001c3565b919050565b600067ffffffffffffffff82111562000236576200023562000194565b5b620002418262000183565b9050602081019050919050565b60005b838110156200026e57808201518184015260208101905062000251565b60008484015250505050565b6000620002916200028b8462000218565b620001f9565b905082815260208101848484011115620002b057620002af6200017e565b5b620002bd8482856200024e565b509392505050565b600082601f830112620002dd57620002dc62000179565b5b8151620002ef8482602086016200027a565b91505092915050565b6000819050919050565b6200030d81620002f8565b81146200031957600080fd5b50565b6000815190506200032d8162000302565b92915050565b6000806000606084860312156200034f576200034e6200016f565b5b600084015167ffffffffffffffff81111562000370576200036f62000174565b5b6200037e86828701620002c5565b935050602084015167ffffffffffffffff811115620003a257620003a162000174565b5b620003b086828701620002c5565b9250506040620003c3868287016200031c565b9150509250925092565b600081519050919050565b7f4e487b7100000000000000000000000000000000000000000000000000000000600052602260045260246000fd5b600060028204905060018216806200042057607f821691505b602082108103620004365762000435620003d8565b5b50919050565b60008190508160005260206000209050919050565b60006020601f8301049050919050565b600082821b905092915050565b600060088302620004a07fffffffffffffffffffffffffffffffffffffffffffffffffffffffffffffffff8262000461565b620004ac868362000461565b95508019841693508086168417925050509392505050565b6000819050919050565b6000620004ef620004e9620004e384620002f8565b620004c4565b620002f8565b9050919050565b6000819050919050565b6200050b83620004ce565b620005236200051a82620004f6565b8484546200046e565b825550505050565b600090565b6200053a6200052b565b6200054781848462000500565b505050565b5b818110156200056f576200056360008262000530565b6001810190506200054d565b5050565b601f821115620005be5762000588816200043c565b620005938462000451565b81016020851015620005a3578190505b620005bb620005b28562000451565b8301826200054c565b50505b505050565b600082821c905092915050565b6000620005e360001984600802620005c3565b1980831691505092915050565b6000620005fe8383620005d0565b9150826002028217905092915050565b6200061982620003cd565b67ffffffffffffffff81111562000635576200063462000194565b5b62000641825462000407565b6200064e82828562000573565b600060209050601f83116001811462000686576000841562000671578287015190505b6200067d8582620005f0565b865550620006ed565b601f19841662000696866200043c565b60005b82811015620006c05784890151825560018201915060208501945060208101905062000699565b86831015620006e05784890151620006dc601f891682620005d0565b8355505b6001600288020188555050505b505050505050565b608051612b776200071f6000396000818161088e01528181610b3f0152610b650152612b776000f3fe608060405234801561001057600080fd5b50600436106101425760003560e01c8063715018a6116100b8578063b6c2672e1161007c578063b6c2672e1461034d578063b88d4fde1461036b578063c87b56dd14610387578063dfef5f69146103b7578063e985e9c5146103d5578063f2fde38b1461040557610142565b8063715018a6146102cd5780638da5cb5b146102d757806395d89b41146102f5578063a22cb46514610313578063ac5553ce1461032f57610142565b806323b872dd1161010a57806323b872dd146101fd57806342842e0e1461021957806347ee03941461023557806354ba0f27146102515780636352211e1461026d57806370a082311461029d57610142565b806301bf66481461014757806301ffc9a71461016357806306fdde0314610193578063081812fc146101b1578063095ea7b3146101e1575b600080fd5b610161600480360381019061015c9190611d18565b610421565b005b61017d60048036038101906101789190611d9d565b610484565b60405161018a9190611de5565b60405180910390f35b61019b610566565b6040516101a89190611e90565b60405180910390f35b6101cb60048036038101906101c69190611ee8565b6105f8565b6040516101d89190611f24565b60405180910390f35b6101fb60048036038101906101f69190611f3f565b61063e565b005b61021760048036038101906102129190611f7f565b610755565b005b610233600480360381019061022e9190611f7f565b6107b5565b005b61024f600480360381019061024a9190611d18565b6107d5565b005b61026b60048036038101906102669190611d18565b610838565b005b61028760048036038101906102829190611ee8565b61091a565b6040516102949190611f24565b60405180910390f35b6102b760048036038101906102b29190611d18565b6109a0565b6040516102c49190611fe1565b60405180910390f35b6102d5610a57565b005b6102df610a6b565b6040516102ec9190611f24565b60405180910390f35b6102fd610a95565b60405161030a9190611e90565b60405180910390f35b61032d60048036038101906103289190612028565b610b27565b005b610337610b3d565b6040516103449190611fe1565b60405180910390f35b610355610b61565b6040516103629190611fe1565b60405180910390f35b6103856004803603810190610380919061219d565b610b89565b005b6103a1600480360381019061039c9190611ee8565b610beb565b6040516103ae9190611e90565b60405180910390f35b6103bf610c53565b6040516103cc9190611fe1565b60405180910390f35b6103ef60048036038101906103ea9190612220565b610c59565b6040516103fc9190611de5565b60405180910390f35b61041f600480360381019061041a9190611d18565b610ced565b005b610429610d70565b6000600760008373ffffffffffffffffffffffffffffffffffffffff1673ffffffffffffffffffffffffffffffffffffffff16815260200190815260200160002060006101000a81548160ff02191690831515021790555050565b60007f80ac58cd000000000000000000000000000000000000000000000000000000007bffffffffffffffffffffffffffffffffffffffffffffffffffffffff1916827bffffffffffffffffffffffffffffffffffffffffffffffffffffffff1916148061054f57507f5b5e139f000000000000000000000000000000000000000000000000000000007bffffffffffffffffffffffffffffffffffffffffffffffffffffffff1916827bffffffffffffffffffffffffffffffffffffffffffffffffffffffff1916145b8061055f575061055e82610dee565b5b9050919050565b6060600080546105759061228f565b80601f01602080910402602001604051908101604052809291908181526020018280546105a19061228f565b80156105ee5780601f106105c3576101008083540402835291602001916105ee565b820191906000526020600020905b8154815290600101906020018083116105d157829003601f168201915b5050505050905090565b600061060382610e58565b6004600083815260200190815260200160002060009054906101000a900473ffffffffffffffffffffffffffffffffffffffff169050919050565b60006106498261091a565b90508073ffffffffffffffffffffffffffffffffffffffff168373ffffffffffffffffffffffffffffffffffffffff16036106b9576040517f08c379a00000000000000000000000000000000000000000000000000000000081526004016106b090612332565b60405180910390fd5b8073ffffffffffffffffffffffffffffffffffffffff166106d8610ea3565b73ffffffffffffffffffffffffffffffffffffffff161480610707575061070681610701610ea3565b610c59565b5b610746576040517f08c379a000000000000000000000000000000000000000000000000000000000815260040161073d906123c4565b60405180910390fd5b6107508383610eab565b505050565b610766610760610ea3565b82610f64565b6107a5576040517f08c379a000000000000000000000000000000000000000000000000000000000815260040161079c90612456565b60405180910390fd5b6107b0838383610ff9565b505050565b6107d083838360405180602001604052806000815250610b89565b505050565b6107dd610d70565b6001600760008373ffffffffffffffffffffffffffffffffffffffff1673ffffffffffffffffffffffffffffffffffffffff16815260200190815260200160002060006101000a81548160ff02191690831515021790555050565b600760003373ffffffffffffffffffffffffffffffffffffffff1673ffffffffffffffffffffffffffffffffffffffff16815260200190815260200160002060009054906101000a900460ff1615806108bd57507f00000000000000000000000000000000000000000000000000000000000000006009546108ba91906124a5565b42105b156108f4576040517f06f201fa00000000000000000000000000000000000000000000000000000000815260040160405180910390fd5b600061090060086112f2565b905061090c8282611300565b610916600861131e565b5050565b60008061092683611334565b9050600073ffffffffffffffffffffffffffffffffffffffff168173ffffffffffffffffffffffffffffffffffffffff1603610997576040517f08c379a000000000000000000000000000000000000000000000000000000000815260040161098e90612525565b60405180910390fd5b80915050919050565b60008073ffffffffffffffffffffffffffffffffffffffff168273ffffffffffffffffffffffffffffffffffffffff1603610a10576040517f08c379a0000000000000000000000000000000000000000000000000000000008152600401610a07906125b7565b60405180910390fd5b600360008373ffffffffffffffffffffffffffffffffffffffff1673ffffffffffffffffffffffffffffffffffffffff168152602001908152602001600020549050919050565b610a5f610d70565b610a696000611371565b565b6000600660009054906101000a900473ffffffffffffffffffffffffffffffffffffffff16905090565b606060018054610aa49061228f565b80601f0160208091040260200160405190810160405280929190818152602001828054610ad09061228f565b8015610b1d5780601f10610af257610100808354040283529160200191610b1d565b820191906000526020600020905b815481529060010190602001808311610b0057829003601f168201915b5050505050905090565b610b39610b32610ea3565b8383611437565b5050565b7f000000000000000000000000000000000000000000000000000000000000000081565b60007f0000000000000000000000000000000000000000000000000000000000000000905090565b610b9a610b94610ea3565b83610f64565b610bd9576040517f08c379a0000000000000000000000000000000000000000000000000000000008152600401610bd090612456565b60405180910390fd5b610be5848484846115a3565b50505050565b6060610bf682610e58565b6000610c006115ff565b90506000815111610c205760405180602001604052806000815250610c4b565b80610c2a84611616565b604051602001610c3b929190612613565b6040516020818303038152906040525b915050919050565b60095481565b6000600560008473ffffffffffffffffffffffffffffffffffffffff1673ffffffffffffffffffffffffffffffffffffffff16815260200190815260200160002060008373ffffffffffffffffffffffffffffffffffffffff1673ffffffffffffffffffffffffffffffffffffffff16815260200190815260200160002060009054906101000a900460ff16905092915050565b610cf5610d70565b600073ffffffffffffffffffffffffffffffffffffffff168173ffffffffffffffffffffffffffffffffffffffff1603610d64576040517f08c379a0000000000000000000000000000000000000000000000000000000008152600401610d5b906126a9565b60405180910390fd5b610d6d81611371565b50565b610d78610ea3565b73ffffffffffffffffffffffffffffffffffffffff16610d96610a6b565b73ffffffffffffffffffffffffffffffffffffffff1614610dec576040517f08c379a0000000000000000000000000000000000000000000000000000000008152600401610de390612715565b60405180910390fd5b565b60007f01ffc9a7000000000000000000000000000000000000000000000000000000007bffffffffffffffffffffffffffffffffffffffffffffffffffffffff1916827bffffffffffffffffffffffffffffffffffffffffffffffffffffffff1916149050919050565b610e61816116e4565b610ea0576040517f08c379a0000000000000000000000000000000000000000000000000000000008152600401610e9790612525565b60405180910390fd5b50565b600033905090565b816004600083815260200190815260200160002060006101000a81548173ffffffffffffffffffffffffffffffffffffffff021916908373ffffffffffffffffffffffffffffffffffffffff160217905550808273ffffffffffffffffffffffffffffffffffffffff16610f1e8361091a565b73ffffffffffffffffffffffffffffffffffffffff167f8c5be1e5ebec7d5bd14f71427d1e84f3dd0314c0f7b2291e5b200ac8c7c3b92560405160405180910390a45050565b600080610f708361091a565b90508073ffffffffffffffffffffffffffffffffffffffff168473ffffffffffffffffffffffffffffffffffffffff161480610fb25750610fb18185610c59565b5b80610ff057508373ffffffffffffffffffffffffffffffffffffffff16610fd8846105f8565b73ffffffffffffffffffffffffffffffffffffffff16145b91505092915050565b8273ffffffffffffffffffffffffffffffffffffffff166110198261091a565b73ffffffffffffffffffffffffffffffffffffffff161461106f576040517f08c379a0000000000000000000000000000000000000000000000000000000008152600401611066906127a7565b60405180910390fd5b600073ffffffffffffffffffffffffffffffffffffffff168273ffffffffffffffffffffffffffffffffffffffff16036110de576040517f08c379a00000000000000000000000000000000000000000000000000000000081526004016110d590612839565b60405180910390fd5b6110eb8383836001611725565b8273ffffffffffffffffffffffffffffffffffffffff1661110b8261091a565b73ffffffffffffffffffffffffffffffffffffffff1614611161576040517f08c379a0000000000000000000000000000000000000000000000000000000008152600401611158906127a7565b60405180910390fd5b6004600082815260200190815260200160002060006101000a81549073ffffffffffffffffffffffffffffffffffffffff02191690556001600360008573ffffffffffffffffffffffffffffffffffffffff1673ffffffffffffffffffffffffffffffffffffffff168152602001908152602001600020600082825403925050819055506001600360008473ffffffffffffffffffffffffffffffffffffffff1673ffffffffffffffffffffffffffffffffffffffff16815260200190815260200160002060008282540192505081905550816002600083815260200190815260200160002060006101000a81548173ffffffffffffffffffffffffffffffffffffffff021916908373ffffffffffffffffffffffffffffffffffffffff160217905550808273ffffffffffffffffffffffffffffffffffffffff168473ffffffffffffffffffffffffffffffffffffffff167fddf252ad1be2c89b69c2b068fc378daa952ba7f163c4a11628f55a4df523b3ef60405160405180910390a46112ed838383600161172b565b505050565b600081600001549050919050565b61131a828260405180602001604052806000815250611731565b5050565b6001816000016000828254019250508190555050565b60006002600083815260200190815260200160002060009054906101000a900473ffffffffffffffffffffffffffffffffffffffff169050919050565b6000600660009054906101000a900473ffffffffffffffffffffffffffffffffffffffff16905081600660006101000a81548173ffffffffffffffffffffffffffffffffffffffff021916908373ffffffffffffffffffffffffffffffffffffffff1602179055508173ffffffffffffffffffffffffffffffffffffffff168173ffffffffffffffffffffffffffffffffffffffff167f8be0079c531659141344cd1fd0a4f28419497f9722a3daafe3b4186f6b6457e060405160405180910390a35050565b8173ffffffffffffffffffffffffffffffffffffffff168373ffffffffffffffffffffffffffffffffffffffff16036114a5576040517f08c379a000000000000000000000000000000000000000000000000000000000815260040161149c906128a5565b60405180910390fd5b80600560008573ffffffffffffffffffffffffffffffffffffffff1673ffffffffffffffffffffffffffffffffffffffff16815260200190815260200160002060008473ffffffffffffffffffffffffffffffffffffffff1673ffffffffffffffffffffffffffffffffffffffff16815260200190815260200160002060006101000a81548160ff0219169083151502179055508173ffffffffffffffffffffffffffffffffffffffff168373ffffffffffffffffffffffffffffffffffffffff167f17307eab39ab6107e8899845ad3d59bd9653f200f220920489ca2b5937696c31836040516115969190611de5565b60405180910390a3505050565b6115ae848484610ff9565b6115ba8484848461178c565b6115f9576040517f08c379a00000000000000000000000000000000000000000000000000000000081526004016115f090612937565b60405180910390fd5b50505050565b606060405180602001604052806000815250905090565b60606000600161162584611913565b01905060008167ffffffffffffffff81111561164457611643612072565b5b6040519080825280601f01601f1916602001820160405280156116765781602001600182028036833780820191505090505b509050600082602001820190505b6001156116d9578080600190039150507f3031323334353637383961626364656600000000000000000000000000000000600a86061a8153600a85816116cd576116cc612957565b5b04945060008503611684575b819350505050919050565b60008073ffffffffffffffffffffffffffffffffffffffff1661170683611334565b73ffffffffffffffffffffffffffffffffffffffff1614159050919050565b50505050565b50505050565b61173b8383611a66565b611748600084848461178c565b611787576040517f08c379a000000000000000000000000000000000000000000000000000000000815260040161177e90612937565b60405180910390fd5b505050565b60006117ad8473ffffffffffffffffffffffffffffffffffffffff16611c83565b15611906578373ffffffffffffffffffffffffffffffffffffffff1663150b7a026117d6610ea3565b8786866040518563ffffffff1660e01b81526004016117f894939291906129db565b6020604051808303816000875af192505050801561183457506040513d601f19601f820116820180604052508101906118319190612a3c565b60015b6118b6573d8060008114611864576040519150601f19603f3d011682016040523d82523d6000602084013e611869565b606091505b5060008151036118ae576040517f08c379a00000000000000000000000000000000000000000000000000000000081526004016118a590612937565b60405180910390fd5b805181602001fd5b63150b7a0260e01b7bffffffffffffffffffffffffffffffffffffffffffffffffffffffff1916817bffffffffffffffffffffffffffffffffffffffffffffffffffffffff19161491505061190b565b600190505b949350505050565b600080600090507a184f03e93ff9f4daa797ed6e38ed64bf6a1f0100000000000000008310611971577a184f03e93ff9f4daa797ed6e38ed64bf6a1f010000000000000000838161196757611966612957565b5b0492506040810190505b6d04ee2d6d415b85acef810000000083106119ae576d04ee2d6d415b85acef810000000083816119a4576119a3612957565b5b0492506020810190505b662386f26fc1000083106119dd57662386f26fc1000083816119d3576119d2612957565b5b0492506010810190505b6305f5e1008310611a06576305f5e10083816119fc576119fb612957565b5b0492506008810190505b6127108310611a2b576127108381611a2157611a20612957565b5b0492506004810190505b60648310611a4e5760648381611a4457611a43612957565b5b0492506002810190505b600a8310611a5d576001810190505b80915050919050565b600073ffffffffffffffffffffffffffffffffffffffff168273ffffffffffffffffffffffffffffffffffffffff1603611ad5576040517f08c379a0000000000000000000000000000000000000000000000000000000008152600401611acc90612ab5565b60405180910390fd5b611ade816116e4565b15611b1e576040517f08c379a0000000000000000000000000000000000000000000000000000000008152600401611b1590612b21565b60405180910390fd5b611b2c600083836001611725565b611b35816116e4565b15611b75576040517f08c379a0000000000000000000000000000000000000000000000000000000008152600401611b6c90612b21565b60405180910390fd5b6001600360008473ffffffffffffffffffffffffffffffffffffffff1673ffffffffffffffffffffffffffffffffffffffff16815260200190815260200160002060008282540192505081905550816002600083815260200190815260200160002060006101000a81548173ffffffffffffffffffffffffffffffffffffffff021916908373ffffffffffffffffffffffffffffffffffffffff160217905550808273ffffffffffffffffffffffffffffffffffffffff16600073ffffffffffffffffffffffffffffffffffffffff167fddf252ad1be2c89b69c2b068fc378daa952ba7f163c4a11628f55a4df523b3ef60405160405180910390a4611c7f60008383600161172b565b5050565b6000808273ffffffffffffffffffffffffffffffffffffffff163b119050919050565b6000604051905090565b600080fd5b600080fd5b600073ffffffffffffffffffffffffffffffffffffffff82169050919050565b6000611ce582611cba565b9050919050565b611cf581611cda565b8114611d0057600080fd5b50565b600081359050611d1281611cec565b92915050565b600060208284031215611d2e57611d2d611cb0565b5b6000611d3c84828501611d03565b91505092915050565b60007fffffffff0000000000000000000000000000000000000000000000000000000082169050919050565b611d7a81611d45565b8114611d8557600080fd5b50565b600081359050611d9781611d71565b92915050565b600060208284031215611db357611db2611cb0565b5b6000611dc184828501611d88565b91505092915050565b60008115159050919050565b611ddf81611dca565b82525050565b6000602082019050611dfa6000830184611dd6565b92915050565b600081519050919050565b600082825260208201905092915050565b60005b83811015611e3a578082015181840152602081019050611e1f565b60008484015250505050565b6000601f19601f8301169050919050565b6000611e6282611e00565b611e6c8185611e0b565b9350611e7c818560208601611e1c565b611e8581611e46565b840191505092915050565b60006020820190508181036000830152611eaa8184611e57565b905092915050565b6000819050919050565b611ec581611eb2565b8114611ed057600080fd5b50565b600081359050611ee281611ebc565b92915050565b600060208284031215611efe57611efd611cb0565b5b6000611f0c84828501611ed3565b91505092915050565b611f1e81611cda565b82525050565b6000602082019050611f396000830184611f15565b92915050565b60008060408385031215611f5657611f55611cb0565b5b6000611f6485828601611d03565b9250506020611f7585828601611ed3565b9150509250929050565b600080600060608486031215611f9857611f97611cb0565b5b6000611fa686828701611d03565b9350506020611fb786828701611d03565b9250506040611fc886828701611ed3565b9150509250925092565b611fdb81611eb2565b82525050565b6000602082019050611ff66000830184611fd2565b92915050565b61200581611dca565b811461201057600080fd5b50565b60008135905061202281611ffc565b92915050565b6000806040838503121561203f5761203e611cb0565b5b600061204d85828601611d03565b925050602061205e85828601612013565b9150509250929050565b600080fd5b600080fd5b7f4e487b7100000000000000000000000000000000000000000000000000000000600052604160045260246000fd5b6120aa82611e46565b810181811067ffffffffffffffff821117156120c9576120c8612072565b5b80604052505050565b60006120dc611ca6565b90506120e882826120a1565b919050565b600067ffffffffffffffff82111561210857612107612072565b5b61211182611e46565b9050602081019050919050565b82818337600083830152505050565b600061214061213b846120ed565b6120d2565b90508281526020810184848401111561215c5761215b61206d565b5b61216784828561211e565b509392505050565b600082601f83011261218457612183612068565b5b813561219484826020860161212d565b91505092915050565b600080600080608085870312156121b7576121b6611cb0565b5b60006121c587828801611d03565b94505060206121d687828801611d03565b93505060406121e787828801611ed3565b925050606085013567ffffffffffffffff81111561220857612207611cb5565b5b6122148782880161216f565b91505092959194509250565b6000806040838503121561223757612236611cb0565b5b600061224585828601611d03565b925050602061225685828601611d03565b9150509250929050565b7f4e487b7100000000000000000000000000000000000000000000000000000000600052602260045260246000fd5b600060028204905060018216806122a757607f821691505b6020821081036122ba576122b9612260565b5b50919050565b7f4552433732313a20617070726f76616c20746f2063757272656e74206f776e6560008201527f7200000000000000000000000000000000000000000000000000000000000000602082015250565b600061231c602183611e0b565b9150612327826122c0565b604082019050919050565b6000602082019050818103600083015261234b8161230f565b9050919050565b7f4552433732313a20617070726f76652063616c6c6572206973206e6f7420746f60008201527f6b656e206f776e6572206f7220617070726f76656420666f7220616c6c000000602082015250565b60006123ae603d83611e0b565b91506123b982612352565b604082019050919050565b600060208201905081810360008301526123dd816123a1565b9050919050565b7f4552433732313a2063616c6c6572206973206e6f7420746f6b656e206f776e6560008201527f72206f7220617070726f76656400000000000000000000000000000000000000602082015250565b6000612440602d83611e0b565b915061244b826123e4565b604082019050919050565b6000602082019050818103600083015261246f81612433565b9050919050565b7f4e487b7100000000000000000000000000000000000000000000000000000000600052601160045260246000fd5b60006124b082611eb2565b91506124bb83611eb2565b92508282019050808211156124d3576124d2612476565b5b92915050565b7f4552433732313a20696e76616c696420746f6b656e2049440000000000000000600082015250565b600061250f601883611e0b565b915061251a826124d9565b602082019050919050565b6000602082019050818103600083015261253e81612502565b9050919050565b7f4552433732313a2061646472657373207a65726f206973206e6f74206120766160008201527f6c6964206f776e65720000000000000000000000000000000000000000000000602082015250565b60006125a1602983611e0b565b91506125ac82612545565b604082019050919050565b600060208201905081810360008301526125d081612594565b9050919050565b600081905092915050565b60006125ed82611e00565b6125f781856125d7565b9350612607818560208601611e1c565b80840191505092915050565b600061261f82856125e2565b915061262b82846125e2565b91508190509392505050565b7f4f776e61626c653a206e6577206f776e657220697320746865207a65726f206160008201527f6464726573730000000000000000000000000000000000000000000000000000602082015250565b6000612693602683611e0b565b915061269e82612637565b604082019050919050565b600060208201905081810360008301526126c281612686565b9050919050565b7f4f776e61626c653a2063616c6c6572206973206e6f7420746865206f776e6572600082015250565b60006126ff602083611e0b565b915061270a826126c9565b602082019050919050565b6000602082019050818103600083015261272e816126f2565b9050919050565b7f4552433732313a207472616e736665722066726f6d20696e636f72726563742060008201527f6f776e6572000000000000000000000000000000000000000000000000000000602082015250565b6000612791602583611e0b565b915061279c82612735565b604082019050919050565b600060208201905081810360008301526127c081612784565b9050919050565b7f4552433732313a207472616e7366657220746f20746865207a65726f2061646460008201527f7265737300000000000000000000000000000000000000000000000000000000602082015250565b6000612823602483611e0b565b915061282e826127c7565b604082019050919050565b6000602082019050818103600083015261285281612816565b9050919050565b7f4552433732313a20617070726f766520746f2063616c6c657200000000000000600082015250565b600061288f601983611e0b565b915061289a82612859565b602082019050919050565b600060208201905081810360008301526128be81612882565b9050919050565b7f4552433732313a207472616e7366657220746f206e6f6e20455243373231526560008201527f63656976657220696d706c656d656e7465720000000000000000000000000000602082015250565b6000612921603283611e0b565b915061292c826128c5565b604082019050919050565b6000602082019050818103600083015261295081612914565b9050919050565b7f4e487b7100000000000000000000000000000000000000000000000000000000600052601260045260246000fd5b600081519050919050565b600082825260208201905092915050565b60006129ad82612986565b6129b78185612991565b93506129c7818560208601611e1c565b6129d081611e46565b840191505092915050565b60006080820190506129f06000830187611f15565b6129fd6020830186611f15565b612a0a6040830185611fd2565b8181036060830152612a1c81846129a2565b905095945050505050565b600081519050612a3681611d71565b92915050565b600060208284031215612a5257612a51611cb0565b5b6000612a6084828501612a27565b91505092915050565b7f4552433732313a206d696e7420746f20746865207a65726f2061646472657373600082015250565b6000612a9f602083611e0b565b9150612aaa82612a69565b602082019050919050565b60006020820190508181036000830152612ace81612a92565b9050919050565b7f4552433732313a20746f6b656e20616c7265616479206d696e74656400000000600082015250565b6000612b0b601c83611e0b565b9150612b1682612ad5565b602082019050919050565b60006020820190508181036000830152612b3a81612afe565b905091905056fea264697066735822122030d91854a0b0747b1fd7d80e86444ef4bc420bbe33baa6d0cd172aecd806d63264736f6c63430008130033",
  "linkReferences": {},
  "deployedLinkReferences": {}
}