{
  "address": "0x14Ca3fca7571B7Af2A69495fB175971199Da2892",
  "abi": [
    {
      "inputs": [
        {
          "internalType": "string",
          "name": "_name",
          "type": "string"
        },
        {
          "internalType": "string",
          "name": "_symbol",
          "type": "string"
        },
        {
          "internalType": "uint256",
          "name": "_phaseDuration",
          "type": "uint256"
        }
      ],
      "stateMutability": "nonpayable",
      "type": "constructor"
    },
    {
      "inputs": [],
      "name": "WhiteListNFT__senderNotEligibleForMinting",
      "type": "error"
    },
    {
      "anonymous": false,
      "inputs": [
        {
          "indexed": true,
          "internalType": "address",
          "name": "owner",
          "type": "address"
        },
        {
          "indexed": true,
          "internalType": "address",
          "name": "approved",
          "type": "address"
        },
        {
          "indexed": true,
          "internalType": "uint256",
          "name": "tokenId",
          "type": "uint256"
        }
      ],
      "name": "Approval",
      "type": "event"
    },
    {
      "anonymous": false,
      "inputs": [
        {
          "indexed": true,
          "internalType": "address",
          "name": "owner",
          "type": "address"
        },
        {
          "indexed": true,
          "internalType": "address",
          "name": "operator",
          "type": "address"
        },
        {
          "indexed": false,
          "internalType": "bool",
          "name": "approved",
          "type": "bool"
        }
      ],
      "name": "ApprovalForAll",
      "type": "event"
    },
    {
      "anonymous": false,
      "inputs": [
        {
          "indexed": true,
          "internalType": "address",
          "name": "previousOwner",
          "type": "address"
        },
        {
          "indexed": true,
          "internalType": "address",
          "name": "newOwner",
          "type": "address"
        }
      ],
      "name": "OwnershipTransferred",
      "type": "event"
    },
    {
      "anonymous": false,
      "inputs": [
        {
          "indexed": true,
          "internalType": "address",
          "name": "from",
          "type": "address"
        },
        {
          "indexed": true,
          "internalType": "address",
          "name": "to",
          "type": "address"
        },
        {
          "indexed": true,
          "internalType": "uint256",
          "name": "tokenId",
          "type": "uint256"
        }
      ],
      "name": "Transfer",
      "type": "event"
    },
    {
      "inputs": [
        {
          "internalType": "address",
          "name": "_address",
          "type": "address"
        }
      ],
      "name": "addToWhiteList",
      "outputs": [],
      "stateMutability": "nonpayable",
      "type": "function"
    },
    {
      "inputs": [
        {
          "internalType": "address",
          "name": "to",
          "type": "address"
        },
        {
          "internalType": "uint256",
          "name": "tokenId",
          "type": "uint256"
        }
      ],
      "name": "approve",
      "outputs": [],
      "stateMutability": "nonpayable",
      "type": "function"
    },
    {
      "inputs": [
        {
          "internalType": "address",
          "name": "owner",
          "type": "address"
        }
      ],
      "name": "balanceOf",
      "outputs": [
        {
          "internalType": "uint256",
          "name": "",
          "type": "uint256"
        }
      ],
      "stateMutability": "view",
      "type": "function"
    },
    {
      "inputs": [
        {
          "internalType": "uint256",
          "name": "tokenId",
          "type": "uint256"
        }
      ],
      "name": "getApproved",
      "outputs": [
        {
          "internalType": "address",
          "name": "",
          "type": "address"
        }
      ],
      "stateMutability": "view",
      "type": "function"
    },
    {
      "inputs": [
        {
          "internalType": "address",
          "name": "owner",
          "type": "address"
        },
        {
          "internalType": "address",
          "name": "operator",
          "type": "address"
        }
      ],
      "name": "isApprovedForAll",
      "outputs": [
        {
          "internalType": "bool",
          "name": "",
          "type": "bool"
        }
      ],
      "stateMutability": "view",
      "type": "function"
    },
    {
      "inputs": [
        {
          "internalType": "address",
          "name": "_to",
          "type": "address"
        }
      ],
      "name": "mintNFT",
      "outputs": [],
      "stateMutability": "nonpayable",
      "type": "function"
    },
    {
      "inputs": [],
      "name": "mintingStartTime",
      "outputs": [
        {
          "internalType": "uint256",
          "name": "",
          "type": "uint256"
        }
      ],
      "stateMutability": "view",
      "type": "function"
    },
    {
      "inputs": [],
      "name": "name",
      "outputs": [
        {
          "internalType": "string",
          "name": "",
          "type": "string"
        }
      ],
      "stateMutability": "view",
      "type": "function"
    },
    {
      "inputs": [],
      "name": "owner",
      "outputs": [
        {
          "internalType": "address",
          "name": "",
          "type": "address"
        }
      ],
      "stateMutability": "view",
      "type": "function"
    },
    {
      "inputs": [
        {
          "internalType": "uint256",
          "name": "tokenId",
          "type": "uint256"
        }
      ],
      "name": "ownerOf",
      "outputs": [
        {
          "internalType": "address",
          "name": "",
          "type": "address"
        }
      ],
      "stateMutability": "view",
      "type": "function"
    },
    {
      "inputs": [],
      "name": "phaseDuration",
      "outputs": [
        {
          "internalType": "uint256",
          "name": "",
          "type": "uint256"
        }
      ],
      "stateMutability": "view",
      "type": "function"
    },
    {
      "inputs": [
        {
          "internalType": "address",
          "name": "_address",
          "type": "address"
        }
      ],
      "name": "removeFromWhiteList",
      "outputs": [],
      "stateMutability": "nonpayable",
      "type": "function"
    },
    {
      "inputs": [],
      "name": "renounceOwnership",
      "outputs": [],
      "stateMutability": "nonpayable",
      "type": "function"
    },
    {
      "inputs": [
        {
          "internalType": "address",
          "name": "from",
          "type": "address"
        },
        {
          "internalType": "address",
          "name": "to",
          "type": "address"
        },
        {
          "internalType": "uint256",
          "name": "tokenId",
          "type": "uint256"
        }
      ],
      "name": "safeTransferFrom",
      "outputs": [],
      "stateMutability": "nonpayable",
      "type": "function"
    },
    {
      "inputs": [
        {
          "internalType": "address",
          "name": "from",
          "type": "address"
        },
        {
          "internalType": "address",
          "name": "to",
          "type": "address"
        },
        {
          "internalType": "uint256",
          "name": "tokenId",
          "type": "uint256"
        },
        {
          "internalType": "bytes",
          "name": "data",
          "type": "bytes"
        }
      ],
      "name": "safeTransferFrom",
      "outputs": [],
      "stateMutability": "nonpayable",
      "type": "function"
    },
    {
      "inputs": [
        {
          "internalType": "address",
          "name": "operator",
          "type": "address"
        },
        {
          "internalType": "bool",
          "name": "approved",
          "type": "bool"
        }
      ],
      "name": "setApprovalForAll",
      "outputs": [],
      "stateMutability": "nonpayable",
      "type": "function"
    },
    {
      "inputs": [
        {
          "internalType": "bytes4",
          "name": "interfaceId",
          "type": "bytes4"
        }
      ],
      "name": "supportsInterface",
      "outputs": [
        {
          "internalType": "bool",
          "name": "",
          "type": "bool"
        }
      ],
      "stateMutability": "view",
      "type": "function"
    },
    {
      "inputs": [],
      "name": "symbol",
      "outputs": [
        {
          "internalType": "string",
          "name": "",
          "type": "string"
        }
      ],
      "stateMutability": "view",
      "type": "function"
    },
    {
      "inputs": [
        {
          "internalType": "uint256",
          "name": "tokenId",
          "type": "uint256"
        }
      ],
      "name": "tokenURI",
      "outputs": [
        {
          "internalType": "string",
          "name": "",
          "type": "string"
        }
      ],
      "stateMutability": "view",
      "type": "function"
    },
    {
      "inputs": [
        {
          "internalType": "address",
          "name": "from",
          "type": "address"
        },
        {
          "internalType": "address",
          "name": "to",
          "type": "address"
        },
        {
          "internalType": "uint256",
          "name": "tokenId",
          "type": "uint256"
        }
      ],
      "name": "transferFrom",
      "outputs": [],
      "stateMutability": "nonpayable",
      "type": "function"
    },
    {
      "inputs": [
        {
          "internalType": "address",
          "name": "newOwner",
          "type": "address"
        }
      ],
      "name": "transferOwnership",
      "outputs": [],
      "stateMutability": "nonpayable",
      "type": "function"
    }
  ],
  "transactionHash": "0x89492c2a4d2b52c0c6715531057db6cdd5dfbc3e45316d6ddaff1300170b01a6",
  "args": [
    "WhiteList",
    "WL",
    "1500"
  ],
  "numDeployments": 1,
  "solcInputHash": "c291e172dcd11fa24f818dff39de29de",
  "bytecode": "0x60a06040523480156200001157600080fd5b506040516200323e3803806200323e833981810160405281019062000037919062000333565b828281600090816200004a91906200060e565b5080600190816200005c91906200060e565b5050506200007f620000736200009760201b60201c565b6200009f60201b60201c565b806080818152505042600981905550505050620006f5565b600033905090565b6000600660009054906101000a900473ffffffffffffffffffffffffffffffffffffffff16905081600660006101000a81548173ffffffffffffffffffffffffffffffffffffffff021916908373ffffffffffffffffffffffffffffffffffffffff1602179055508173ffffffffffffffffffffffffffffffffffffffff168173ffffffffffffffffffffffffffffffffffffffff167f8be0079c531659141344cd1fd0a4f28419497f9722a3daafe3b4186f6b6457e060405160405180910390a35050565b6000604051905090565b600080fd5b600080fd5b600080fd5b600080fd5b6000601f19601f8301169050919050565b7f4e487b7100000000000000000000000000000000000000000000000000000000600052604160045260246000fd5b620001ce8262000183565b810181811067ffffffffffffffff82111715620001f057620001ef62000194565b5b80604052505050565b60006200020562000165565b9050620002138282620001c3565b919050565b600067ffffffffffffffff82111562000236576200023562000194565b5b620002418262000183565b9050602081019050919050565b60005b838110156200026e57808201518184015260208101905062000251565b60008484015250505050565b6000620002916200028b8462000218565b620001f9565b905082815260208101848484011115620002b057620002af6200017e565b5b620002bd8482856200024e565b509392505050565b600082601f830112620002dd57620002dc62000179565b5b8151620002ef8482602086016200027a565b91505092915050565b6000819050919050565b6200030d81620002f8565b81146200031957600080fd5b50565b6000815190506200032d8162000302565b92915050565b6000806000606084860312156200034f576200034e6200016f565b5b600084015167ffffffffffffffff81111562000370576200036f62000174565b5b6200037e86828701620002c5565b935050602084015167ffffffffffffffff811115620003a257620003a162000174565b5b620003b086828701620002c5565b9250506040620003c3868287016200031c565b9150509250925092565b600081519050919050565b7f4e487b7100000000000000000000000000000000000000000000000000000000600052602260045260246000fd5b600060028204905060018216806200042057607f821691505b602082108103620004365762000435620003d8565b5b50919050565b60008190508160005260206000209050919050565b60006020601f8301049050919050565b600082821b905092915050565b600060088302620004a07fffffffffffffffffffffffffffffffffffffffffffffffffffffffffffffffff8262000461565b620004ac868362000461565b95508019841693508086168417925050509392505050565b6000819050919050565b6000620004ef620004e9620004e384620002f8565b620004c4565b620002f8565b9050919050565b6000819050919050565b6200050b83620004ce565b620005236200051a82620004f6565b8484546200046e565b825550505050565b600090565b6200053a6200052b565b6200054781848462000500565b505050565b5b818110156200056f576200056360008262000530565b6001810190506200054d565b5050565b601f821115620005be5762000588816200043c565b620005938462000451565b81016020851015620005a3578190505b620005bb620005b28562000451565b8301826200054c565b50505b505050565b600082821c905092915050565b6000620005e360001984600802620005c3565b1980831691505092915050565b6000620005fe8383620005d0565b9150826002028217905092915050565b6200061982620003cd565b67ffffffffffffffff81111562000635576200063462000194565b5b62000641825462000407565b6200064e82828562000573565b600060209050601f83116001811462000686576000841562000671578287015190505b6200067d8582620005f0565b865550620006ed565b601f19841662000696866200043c565b60005b82811015620006c05784890151825560018201915060208501945060208101905062000699565b86831015620006e05784890151620006dc601f891682620005d0565b8355505b6001600288020188555050505b505050505050565b608051612b2662000718600039600081816108650152610b160152612b266000f3fe608060405234801561001057600080fd5b50600436106101375760003560e01c806370a08231116100b8578063ac5553ce1161007c578063ac5553ce14610324578063b88d4fde14610342578063c87b56dd1461035e578063dfef5f691461038e578063e985e9c5146103ac578063f2fde38b146103dc57610137565b806370a0823114610292578063715018a6146102c25780638da5cb5b146102cc57806395d89b41146102ea578063a22cb4651461030857610137565b806323b872dd116100ff57806323b872dd146101f257806342842e0e1461020e57806347ee03941461022a57806354ba0f27146102465780636352211e1461026257610137565b806301bf66481461013c57806301ffc9a71461015857806306fdde0314610188578063081812fc146101a6578063095ea7b3146101d6575b600080fd5b61015660048036038101906101519190611cc7565b6103f8565b005b610172600480360381019061016d9190611d4c565b61045b565b60405161017f9190611d94565b60405180910390f35b61019061053d565b60405161019d9190611e3f565b60405180910390f35b6101c060048036038101906101bb9190611e97565b6105cf565b6040516101cd9190611ed3565b60405180910390f35b6101f060048036038101906101eb9190611eee565b610615565b005b61020c60048036038101906102079190611f2e565b61072c565b005b61022860048036038101906102239190611f2e565b61078c565b005b610244600480360381019061023f9190611cc7565b6107ac565b005b610260600480360381019061025b9190611cc7565b61080f565b005b61027c60048036038101906102779190611e97565b6108f1565b6040516102899190611ed3565b60405180910390f35b6102ac60048036038101906102a79190611cc7565b610977565b6040516102b99190611f90565b60405180910390f35b6102ca610a2e565b005b6102d4610a42565b6040516102e19190611ed3565b60405180910390f35b6102f2610a6c565b6040516102ff9190611e3f565b60405180910390f35b610322600480360381019061031d9190611fd7565b610afe565b005b61032c610b14565b6040516103399190611f90565b60405180910390f35b61035c6004803603810190610357919061214c565b610b38565b005b61037860048036038101906103739190611e97565b610b9a565b6040516103859190611e3f565b60405180910390f35b610396610c02565b6040516103a39190611f90565b60405180910390f35b6103c660048036038101906103c191906121cf565b610c08565b6040516103d39190611d94565b60405180910390f35b6103f660048036038101906103f19190611cc7565b610c9c565b005b610400610d1f565b6000600760008373ffffffffffffffffffffffffffffffffffffffff1673ffffffffffffffffffffffffffffffffffffffff16815260200190815260200160002060006101000a81548160ff02191690831515021790555050565b60007f80ac58cd000000000000000000000000000000000000000000000000000000007bffffffffffffffffffffffffffffffffffffffffffffffffffffffff1916827bffffffffffffffffffffffffffffffffffffffffffffffffffffffff1916148061052657507f5b5e139f000000000000000000000000000000000000000000000000000000007bffffffffffffffffffffffffffffffffffffffffffffffffffffffff1916827bffffffffffffffffffffffffffffffffffffffffffffffffffffffff1916145b80610536575061053582610d9d565b5b9050919050565b60606000805461054c9061223e565b80601f01602080910402602001604051908101604052809291908181526020018280546105789061223e565b80156105c55780601f1061059a576101008083540402835291602001916105c5565b820191906000526020600020905b8154815290600101906020018083116105a857829003601f168201915b5050505050905090565b60006105da82610e07565b6004600083815260200190815260200160002060009054906101000a900473ffffffffffffffffffffffffffffffffffffffff169050919050565b6000610620826108f1565b90508073ffffffffffffffffffffffffffffffffffffffff168373ffffffffffffffffffffffffffffffffffffffff1603610690576040517f08c379a0000000000000000000000000000000000000000000000000000000008152600401610687906122e1565b60405180910390fd5b8073ffffffffffffffffffffffffffffffffffffffff166106af610e52565b73ffffffffffffffffffffffffffffffffffffffff1614806106de57506106dd816106d8610e52565b610c08565b5b61071d576040517f08c379a000000000000000000000000000000000000000000000000000000000815260040161071490612373565b60405180910390fd5b6107278383610e5a565b505050565b61073d610737610e52565b82610f13565b61077c576040517f08c379a000000000000000000000000000000000000000000000000000000000815260040161077390612405565b60405180910390fd5b610787838383610fa8565b505050565b6107a783838360405180602001604052806000815250610b38565b505050565b6107b4610d1f565b6001600760008373ffffffffffffffffffffffffffffffffffffffff1673ffffffffffffffffffffffffffffffffffffffff16815260200190815260200160002060006101000a81548160ff02191690831515021790555050565b600760003373ffffffffffffffffffffffffffffffffffffffff1673ffffffffffffffffffffffffffffffffffffffff16815260200190815260200160002060009054906101000a900460ff16158061089457507f00000000000000000000000000000000000000000000000000000000000000006009546108919190612454565b42105b156108cb576040517f06f201fa00000000000000000000000000000000000000000000000000000000815260040160405180910390fd5b60006108d760086112a1565b90506108e382826112af565b6108ed60086112cd565b5050565b6000806108fd836112e3565b9050600073ffffffffffffffffffffffffffffffffffffffff168173ffffffffffffffffffffffffffffffffffffffff160361096e576040517f08c379a0000000000000000000000000000000000000000000000000000000008152600401610965906124d4565b60405180910390fd5b80915050919050565b60008073ffffffffffffffffffffffffffffffffffffffff168273ffffffffffffffffffffffffffffffffffffffff16036109e7576040517f08c379a00000000000000000000000000000000000000000000000000000000081526004016109de90612566565b60405180910390fd5b600360008373ffffffffffffffffffffffffffffffffffffffff1673ffffffffffffffffffffffffffffffffffffffff168152602001908152602001600020549050919050565b610a36610d1f565b610a406000611320565b565b6000600660009054906101000a900473ffffffffffffffffffffffffffffffffffffffff16905090565b606060018054610a7b9061223e565b80601f0160208091040260200160405190810160405280929190818152602001828054610aa79061223e565b8015610af45780601f10610ac957610100808354040283529160200191610af4565b820191906000526020600020905b815481529060010190602001808311610ad757829003601f168201915b5050505050905090565b610b10610b09610e52565b83836113e6565b5050565b7f000000000000000000000000000000000000000000000000000000000000000081565b610b49610b43610e52565b83610f13565b610b88576040517f08c379a0000000000000000000000000000000000000000000000000000000008152600401610b7f90612405565b60405180910390fd5b610b9484848484611552565b50505050565b6060610ba582610e07565b6000610baf6115ae565b90506000815111610bcf5760405180602001604052806000815250610bfa565b80610bd9846115c5565b604051602001610bea9291906125c2565b6040516020818303038152906040525b915050919050565b60095481565b6000600560008473ffffffffffffffffffffffffffffffffffffffff1673ffffffffffffffffffffffffffffffffffffffff16815260200190815260200160002060008373ffffffffffffffffffffffffffffffffffffffff1673ffffffffffffffffffffffffffffffffffffffff16815260200190815260200160002060009054906101000a900460ff16905092915050565b610ca4610d1f565b600073ffffffffffffffffffffffffffffffffffffffff168173ffffffffffffffffffffffffffffffffffffffff1603610d13576040517f08c379a0000000000000000000000000000000000000000000000000000000008152600401610d0a90612658565b60405180910390fd5b610d1c81611320565b50565b610d27610e52565b73ffffffffffffffffffffffffffffffffffffffff16610d45610a42565b73ffffffffffffffffffffffffffffffffffffffff1614610d9b576040517f08c379a0000000000000000000000000000000000000000000000000000000008152600401610d92906126c4565b60405180910390fd5b565b60007f01ffc9a7000000000000000000000000000000000000000000000000000000007bffffffffffffffffffffffffffffffffffffffffffffffffffffffff1916827bffffffffffffffffffffffffffffffffffffffffffffffffffffffff1916149050919050565b610e1081611693565b610e4f576040517f08c379a0000000000000000000000000000000000000000000000000000000008152600401610e46906124d4565b60405180910390fd5b50565b600033905090565b816004600083815260200190815260200160002060006101000a81548173ffffffffffffffffffffffffffffffffffffffff021916908373ffffffffffffffffffffffffffffffffffffffff160217905550808273ffffffffffffffffffffffffffffffffffffffff16610ecd836108f1565b73ffffffffffffffffffffffffffffffffffffffff167f8c5be1e5ebec7d5bd14f71427d1e84f3dd0314c0f7b2291e5b200ac8c7c3b92560405160405180910390a45050565b600080610f1f836108f1565b90508073ffffffffffffffffffffffffffffffffffffffff168473ffffffffffffffffffffffffffffffffffffffff161480610f615750610f608185610c08565b5b80610f9f57508373ffffffffffffffffffffffffffffffffffffffff16610f87846105cf565b73ffffffffffffffffffffffffffffffffffffffff16145b91505092915050565b8273ffffffffffffffffffffffffffffffffffffffff16610fc8826108f1565b73ffffffffffffffffffffffffffffffffffffffff161461101e576040517f08c379a000000000000000000000000000000000000000000000000000000000815260040161101590612756565b60405180910390fd5b600073ffffffffffffffffffffffffffffffffffffffff168273ffffffffffffffffffffffffffffffffffffffff160361108d576040517f08c379a0000000000000000000000000000000000000000000000000000000008152600401611084906127e8565b60405180910390fd5b61109a83838360016116d4565b8273ffffffffffffffffffffffffffffffffffffffff166110ba826108f1565b73ffffffffffffffffffffffffffffffffffffffff1614611110576040517f08c379a000000000000000000000000000000000000000000000000000000000815260040161110790612756565b60405180910390fd5b6004600082815260200190815260200160002060006101000a81549073ffffffffffffffffffffffffffffffffffffffff02191690556001600360008573ffffffffffffffffffffffffffffffffffffffff1673ffffffffffffffffffffffffffffffffffffffff168152602001908152602001600020600082825403925050819055506001600360008473ffffffffffffffffffffffffffffffffffffffff1673ffffffffffffffffffffffffffffffffffffffff16815260200190815260200160002060008282540192505081905550816002600083815260200190815260200160002060006101000a81548173ffffffffffffffffffffffffffffffffffffffff021916908373ffffffffffffffffffffffffffffffffffffffff160217905550808273ffffffffffffffffffffffffffffffffffffffff168473ffffffffffffffffffffffffffffffffffffffff167fddf252ad1be2c89b69c2b068fc378daa952ba7f163c4a11628f55a4df523b3ef60405160405180910390a461129c83838360016116da565b505050565b600081600001549050919050565b6112c98282604051806020016040528060008152506116e0565b5050565b6001816000016000828254019250508190555050565b60006002600083815260200190815260200160002060009054906101000a900473ffffffffffffffffffffffffffffffffffffffff169050919050565b6000600660009054906101000a900473ffffffffffffffffffffffffffffffffffffffff16905081600660006101000a81548173ffffffffffffffffffffffffffffffffffffffff021916908373ffffffffffffffffffffffffffffffffffffffff1602179055508173ffffffffffffffffffffffffffffffffffffffff168173ffffffffffffffffffffffffffffffffffffffff167f8be0079c531659141344cd1fd0a4f28419497f9722a3daafe3b4186f6b6457e060405160405180910390a35050565b8173ffffffffffffffffffffffffffffffffffffffff168373ffffffffffffffffffffffffffffffffffffffff1603611454576040517f08c379a000000000000000000000000000000000000000000000000000000000815260040161144b90612854565b60405180910390fd5b80600560008573ffffffffffffffffffffffffffffffffffffffff1673ffffffffffffffffffffffffffffffffffffffff16815260200190815260200160002060008473ffffffffffffffffffffffffffffffffffffffff1673ffffffffffffffffffffffffffffffffffffffff16815260200190815260200160002060006101000a81548160ff0219169083151502179055508173ffffffffffffffffffffffffffffffffffffffff168373ffffffffffffffffffffffffffffffffffffffff167f17307eab39ab6107e8899845ad3d59bd9653f200f220920489ca2b5937696c31836040516115459190611d94565b60405180910390a3505050565b61155d848484610fa8565b6115698484848461173b565b6115a8576040517f08c379a000000000000000000000000000000000000000000000000000000000815260040161159f906128e6565b60405180910390fd5b50505050565b606060405180602001604052806000815250905090565b6060600060016115d4846118c2565b01905060008167ffffffffffffffff8111156115f3576115f2612021565b5b6040519080825280601f01601f1916602001820160405280156116255781602001600182028036833780820191505090505b509050600082602001820190505b600115611688578080600190039150507f3031323334353637383961626364656600000000000000000000000000000000600a86061a8153600a858161167c5761167b612906565b5b04945060008503611633575b819350505050919050565b60008073ffffffffffffffffffffffffffffffffffffffff166116b5836112e3565b73ffffffffffffffffffffffffffffffffffffffff1614159050919050565b50505050565b50505050565b6116ea8383611a15565b6116f7600084848461173b565b611736576040517f08c379a000000000000000000000000000000000000000000000000000000000815260040161172d906128e6565b60405180910390fd5b505050565b600061175c8473ffffffffffffffffffffffffffffffffffffffff16611c32565b156118b5578373ffffffffffffffffffffffffffffffffffffffff1663150b7a02611785610e52565b8786866040518563ffffffff1660e01b81526004016117a7949392919061298a565b6020604051808303816000875af19250505080156117e357506040513d601f19601f820116820180604052508101906117e091906129eb565b60015b611865573d8060008114611813576040519150601f19603f3d011682016040523d82523d6000602084013e611818565b606091505b50600081510361185d576040517f08c379a0000000000000000000000000000000000000000000000000000000008152600401611854906128e6565b60405180910390fd5b805181602001fd5b63150b7a0260e01b7bffffffffffffffffffffffffffffffffffffffffffffffffffffffff1916817bffffffffffffffffffffffffffffffffffffffffffffffffffffffff1916149150506118ba565b600190505b949350505050565b600080600090507a184f03e93ff9f4daa797ed6e38ed64bf6a1f0100000000000000008310611920577a184f03e93ff9f4daa797ed6e38ed64bf6a1f010000000000000000838161191657611915612906565b5b0492506040810190505b6d04ee2d6d415b85acef8100000000831061195d576d04ee2d6d415b85acef8100000000838161195357611952612906565b5b0492506020810190505b662386f26fc10000831061198c57662386f26fc10000838161198257611981612906565b5b0492506010810190505b6305f5e10083106119b5576305f5e10083816119ab576119aa612906565b5b0492506008810190505b61271083106119da5761271083816119d0576119cf612906565b5b0492506004810190505b606483106119fd57606483816119f3576119f2612906565b5b0492506002810190505b600a8310611a0c576001810190505b80915050919050565b600073ffffffffffffffffffffffffffffffffffffffff168273ffffffffffffffffffffffffffffffffffffffff1603611a84576040517f08c379a0000000000000000000000000000000000000000000000000000000008152600401611a7b90612a64565b60405180910390fd5b611a8d81611693565b15611acd576040517f08c379a0000000000000000000000000000000000000000000000000000000008152600401611ac490612ad0565b60405180910390fd5b611adb6000838360016116d4565b611ae481611693565b15611b24576040517f08c379a0000000000000000000000000000000000000000000000000000000008152600401611b1b90612ad0565b60405180910390fd5b6001600360008473ffffffffffffffffffffffffffffffffffffffff1673ffffffffffffffffffffffffffffffffffffffff16815260200190815260200160002060008282540192505081905550816002600083815260200190815260200160002060006101000a81548173ffffffffffffffffffffffffffffffffffffffff021916908373ffffffffffffffffffffffffffffffffffffffff160217905550808273ffffffffffffffffffffffffffffffffffffffff16600073ffffffffffffffffffffffffffffffffffffffff167fddf252ad1be2c89b69c2b068fc378daa952ba7f163c4a11628f55a4df523b3ef60405160405180910390a4611c2e6000838360016116da565b5050565b6000808273ffffffffffffffffffffffffffffffffffffffff163b119050919050565b6000604051905090565b600080fd5b600080fd5b600073ffffffffffffffffffffffffffffffffffffffff82169050919050565b6000611c9482611c69565b9050919050565b611ca481611c89565b8114611caf57600080fd5b50565b600081359050611cc181611c9b565b92915050565b600060208284031215611cdd57611cdc611c5f565b5b6000611ceb84828501611cb2565b91505092915050565b60007fffffffff0000000000000000000000000000000000000000000000000000000082169050919050565b611d2981611cf4565b8114611d3457600080fd5b50565b600081359050611d4681611d20565b92915050565b600060208284031215611d6257611d61611c5f565b5b6000611d7084828501611d37565b91505092915050565b60008115159050919050565b611d8e81611d79565b82525050565b6000602082019050611da96000830184611d85565b92915050565b600081519050919050565b600082825260208201905092915050565b60005b83811015611de9578082015181840152602081019050611dce565b60008484015250505050565b6000601f19601f8301169050919050565b6000611e1182611daf565b611e1b8185611dba565b9350611e2b818560208601611dcb565b611e3481611df5565b840191505092915050565b60006020820190508181036000830152611e598184611e06565b905092915050565b6000819050919050565b611e7481611e61565b8114611e7f57600080fd5b50565b600081359050611e9181611e6b565b92915050565b600060208284031215611ead57611eac611c5f565b5b6000611ebb84828501611e82565b91505092915050565b611ecd81611c89565b82525050565b6000602082019050611ee86000830184611ec4565b92915050565b60008060408385031215611f0557611f04611c5f565b5b6000611f1385828601611cb2565b9250506020611f2485828601611e82565b9150509250929050565b600080600060608486031215611f4757611f46611c5f565b5b6000611f5586828701611cb2565b9350506020611f6686828701611cb2565b9250506040611f7786828701611e82565b9150509250925092565b611f8a81611e61565b82525050565b6000602082019050611fa56000830184611f81565b92915050565b611fb481611d79565b8114611fbf57600080fd5b50565b600081359050611fd181611fab565b92915050565b60008060408385031215611fee57611fed611c5f565b5b6000611ffc85828601611cb2565b925050602061200d85828601611fc2565b9150509250929050565b600080fd5b600080fd5b7f4e487b7100000000000000000000000000000000000000000000000000000000600052604160045260246000fd5b61205982611df5565b810181811067ffffffffffffffff8211171561207857612077612021565b5b80604052505050565b600061208b611c55565b90506120978282612050565b919050565b600067ffffffffffffffff8211156120b7576120b6612021565b5b6120c082611df5565b9050602081019050919050565b82818337600083830152505050565b60006120ef6120ea8461209c565b612081565b90508281526020810184848401111561210b5761210a61201c565b5b6121168482856120cd565b509392505050565b600082601f83011261213357612132612017565b5b81356121438482602086016120dc565b91505092915050565b6000806000806080858703121561216657612165611c5f565b5b600061217487828801611cb2565b945050602061218587828801611cb2565b935050604061219687828801611e82565b925050606085013567ffffffffffffffff8111156121b7576121b6611c64565b5b6121c38782880161211e565b91505092959194509250565b600080604083850312156121e6576121e5611c5f565b5b60006121f485828601611cb2565b925050602061220585828601611cb2565b9150509250929050565b7f4e487b7100000000000000000000000000000000000000000000000000000000600052602260045260246000fd5b6000600282049050600182168061225657607f821691505b6020821081036122695761226861220f565b5b50919050565b7f4552433732313a20617070726f76616c20746f2063757272656e74206f776e6560008201527f7200000000000000000000000000000000000000000000000000000000000000602082015250565b60006122cb602183611dba565b91506122d68261226f565b604082019050919050565b600060208201905081810360008301526122fa816122be565b9050919050565b7f4552433732313a20617070726f76652063616c6c6572206973206e6f7420746f60008201527f6b656e206f776e6572206f7220617070726f76656420666f7220616c6c000000602082015250565b600061235d603d83611dba565b915061236882612301565b604082019050919050565b6000602082019050818103600083015261238c81612350565b9050919050565b7f4552433732313a2063616c6c6572206973206e6f7420746f6b656e206f776e6560008201527f72206f7220617070726f76656400000000000000000000000000000000000000602082015250565b60006123ef602d83611dba565b91506123fa82612393565b604082019050919050565b6000602082019050818103600083015261241e816123e2565b9050919050565b7f4e487b7100000000000000000000000000000000000000000000000000000000600052601160045260246000fd5b600061245f82611e61565b915061246a83611e61565b925082820190508082111561248257612481612425565b5b92915050565b7f4552433732313a20696e76616c696420746f6b656e2049440000000000000000600082015250565b60006124be601883611dba565b91506124c982612488565b602082019050919050565b600060208201905081810360008301526124ed816124b1565b9050919050565b7f4552433732313a2061646472657373207a65726f206973206e6f74206120766160008201527f6c6964206f776e65720000000000000000000000000000000000000000000000602082015250565b6000612550602983611dba565b915061255b826124f4565b604082019050919050565b6000602082019050818103600083015261257f81612543565b9050919050565b600081905092915050565b600061259c82611daf565b6125a68185612586565b93506125b6818560208601611dcb565b80840191505092915050565b60006125ce8285612591565b91506125da8284612591565b91508190509392505050565b7f4f776e61626c653a206e6577206f776e657220697320746865207a65726f206160008201527f6464726573730000000000000000000000000000000000000000000000000000602082015250565b6000612642602683611dba565b915061264d826125e6565b604082019050919050565b6000602082019050818103600083015261267181612635565b9050919050565b7f4f776e61626c653a2063616c6c6572206973206e6f7420746865206f776e6572600082015250565b60006126ae602083611dba565b91506126b982612678565b602082019050919050565b600060208201905081810360008301526126dd816126a1565b9050919050565b7f4552433732313a207472616e736665722066726f6d20696e636f72726563742060008201527f6f776e6572000000000000000000000000000000000000000000000000000000602082015250565b6000612740602583611dba565b915061274b826126e4565b604082019050919050565b6000602082019050818103600083015261276f81612733565b9050919050565b7f4552433732313a207472616e7366657220746f20746865207a65726f2061646460008201527f7265737300000000000000000000000000000000000000000000000000000000602082015250565b60006127d2602483611dba565b91506127dd82612776565b604082019050919050565b60006020820190508181036000830152612801816127c5565b9050919050565b7f4552433732313a20617070726f766520746f2063616c6c657200000000000000600082015250565b600061283e601983611dba565b915061284982612808565b602082019050919050565b6000602082019050818103600083015261286d81612831565b9050919050565b7f4552433732313a207472616e7366657220746f206e6f6e20455243373231526560008201527f63656976657220696d706c656d656e7465720000000000000000000000000000602082015250565b60006128d0603283611dba565b91506128db82612874565b604082019050919050565b600060208201905081810360008301526128ff816128c3565b9050919050565b7f4e487b7100000000000000000000000000000000000000000000000000000000600052601260045260246000fd5b600081519050919050565b600082825260208201905092915050565b600061295c82612935565b6129668185612940565b9350612976818560208601611dcb565b61297f81611df5565b840191505092915050565b600060808201905061299f6000830187611ec4565b6129ac6020830186611ec4565b6129b96040830185611f81565b81810360608301526129cb8184612951565b905095945050505050565b6000815190506129e581611d20565b92915050565b600060208284031215612a0157612a00611c5f565b5b6000612a0f848285016129d6565b91505092915050565b7f4552433732313a206d696e7420746f20746865207a65726f2061646472657373600082015250565b6000612a4e602083611dba565b9150612a5982612a18565b602082019050919050565b60006020820190508181036000830152612a7d81612a41565b9050919050565b7f4552433732313a20746f6b656e20616c7265616479206d696e74656400000000600082015250565b6000612aba601c83611dba565b9150612ac582612a84565b602082019050919050565b60006020820190508181036000830152612ae981612aad565b905091905056fea2646970667358221220ec5935fb5501a14cc9edd9fcd62775a0ad6ca99f58b4e00eb12b922ea0b87b4264736f6c63430008130033",
  "devdoc": {
    "author": "Ritik Raj",
    "details": "This contract uses imports of ERC721 token, Ownable contract and Counters library from openzeppelin",
    "events": {
      "Approval(address,address,uint256)": {
        "details": "Emitted when `owner` enables `approved` to manage the `tokenId` token."
      },
      "ApprovalForAll(address,address,bool)": {
        "details": "Emitted when `owner` enables or disables (`approved`) `operator` to manage all of its assets."
      },
      "Transfer(address,address,uint256)": {
        "details": "Emitted when `tokenId` token is transferred from `from` to `to`."
      }
    },
    "kind": "dev",
    "methods": {
      "approve(address,uint256)": {
        "details": "See {IERC721-approve}."
      },
      "balanceOf(address)": {
        "details": "See {IERC721-balanceOf}."
      },
      "getApproved(uint256)": {
        "details": "See {IERC721-getApproved}."
      },
      "isApprovedForAll(address,address)": {
        "details": "See {IERC721-isApprovedForAll}."
      },
      "name()": {
        "details": "See {IERC721Metadata-name}."
      },
      "owner()": {
        "details": "Returns the address of the current owner."
      },
      "ownerOf(uint256)": {
        "details": "See {IERC721-ownerOf}."
      },
      "renounceOwnership()": {
        "details": "Leaves the contract without owner. It will not be possible to call `onlyOwner` functions. Can only be called by the current owner. NOTE: Renouncing ownership will leave the contract without an owner, thereby disabling any functionality that is only available to the owner."
      },
      "safeTransferFrom(address,address,uint256)": {
        "details": "See {IERC721-safeTransferFrom}."
      },
      "safeTransferFrom(address,address,uint256,bytes)": {
        "details": "See {IERC721-safeTransferFrom}."
      },
      "setApprovalForAll(address,bool)": {
        "details": "See {IERC721-setApprovalForAll}."
      },
      "supportsInterface(bytes4)": {
        "details": "See {IERC165-supportsInterface}."
      },
      "symbol()": {
        "details": "See {IERC721Metadata-symbol}."
      },
      "tokenURI(uint256)": {
        "details": "See {IERC721Metadata-tokenURI}."
      },
      "transferFrom(address,address,uint256)": {
        "details": "See {IERC721-transferFrom}."
      },
      "transferOwnership(address)": {
        "details": "Transfers ownership of the contract to a new account (`newOwner`). Can only be called by the current owner."
      }
    },
    "title": "A sample NFT token",
    "version": 1
  },
  "userdoc": {
    "kind": "user",
    "methods": {},
    "notice": "This is a sample NFT token with whitelisting and normal users are allowed to safe mint NFT after a certain phase  duration ",
    "version": 1
  },
  "storageLayout": {
    "storage": [
      {
        "astId": 828,
        "contract": "contracts/WhiteListNFT.sol:WhiteListNFT",
        "label": "_name",
        "offset": 0,
        "slot": "0",
        "type": "t_string_storage"
      },
      {
        "astId": 830,
        "contract": "contracts/WhiteListNFT.sol:WhiteListNFT",
        "label": "_symbol",
        "offset": 0,
        "slot": "1",
        "type": "t_string_storage"
      },
      {
        "astId": 834,
        "contract": "contracts/WhiteListNFT.sol:WhiteListNFT",
        "label": "_owners",
        "offset": 0,
        "slot": "2",
        "type": "t_mapping(t_uint256,t_address)"
      },
      {
        "astId": 838,
        "contract": "contracts/WhiteListNFT.sol:WhiteListNFT",
        "label": "_balances",
        "offset": 0,
        "slot": "3",
        "type": "t_mapping(t_address,t_uint256)"
      },
      {
        "astId": 842,
        "contract": "contracts/WhiteListNFT.sol:WhiteListNFT",
        "label": "_tokenApprovals",
        "offset": 0,
        "slot": "4",
        "type": "t_mapping(t_uint256,t_address)"
      },
      {
        "astId": 848,
        "contract": "contracts/WhiteListNFT.sol:WhiteListNFT",
        "label": "_operatorApprovals",
        "offset": 0,
        "slot": "5",
        "type": "t_mapping(t_address,t_mapping(t_address,t_bool))"
      },
      {
        "astId": 7,
        "contract": "contracts/WhiteListNFT.sol:WhiteListNFT",
        "label": "_owner",
        "offset": 0,
        "slot": "6",
        "type": "t_address"
      },
      {
        "astId": 3735,
        "contract": "contracts/WhiteListNFT.sol:WhiteListNFT",
        "label": "whiteList",
        "offset": 0,
        "slot": "7",
        "type": "t_mapping(t_address,t_bool)"
      },
      {
        "astId": 3738,
        "contract": "contracts/WhiteListNFT.sol:WhiteListNFT",
        "label": "tokenIdTracker",
        "offset": 0,
        "slot": "8",
        "type": "t_struct(Counter)2248_storage"
      },
      {
        "astId": 3740,
        "contract": "contracts/WhiteListNFT.sol:WhiteListNFT",
        "label": "mintingStartTime",
        "offset": 0,
        "slot": "9",
        "type": "t_uint256"
      }
    ],
    "types": {
      "t_address": {
        "encoding": "inplace",
        "label": "address",
        "numberOfBytes": "20"
      },
      "t_bool": {
        "encoding": "inplace",
        "label": "bool",
        "numberOfBytes": "1"
      },
      "t_mapping(t_address,t_bool)": {
        "encoding": "mapping",
        "key": "t_address",
        "label": "mapping(address => bool)",
        "numberOfBytes": "32",
        "value": "t_bool"
      },
      "t_mapping(t_address,t_mapping(t_address,t_bool))": {
        "encoding": "mapping",
        "key": "t_address",
        "label": "mapping(address => mapping(address => bool))",
        "numberOfBytes": "32",
        "value": "t_mapping(t_address,t_bool)"
      },
      "t_mapping(t_address,t_uint256)": {
        "encoding": "mapping",
        "key": "t_address",
        "label": "mapping(address => uint256)",
        "numberOfBytes": "32",
        "value": "t_uint256"
      },
      "t_mapping(t_uint256,t_address)": {
        "encoding": "mapping",
        "key": "t_uint256",
        "label": "mapping(uint256 => address)",
        "numberOfBytes": "32",
        "value": "t_address"
      },
      "t_string_storage": {
        "encoding": "bytes",
        "label": "string",
        "numberOfBytes": "32"
      },
      "t_struct(Counter)2248_storage": {
        "encoding": "inplace",
        "label": "struct Counters.Counter",
        "members": [
          {
            "astId": 2247,
            "contract": "contracts/WhiteListNFT.sol:WhiteListNFT",
            "label": "_value",
            "offset": 0,
            "slot": "0",
            "type": "t_uint256"
          }
        ],
        "numberOfBytes": "32"
      },
      "t_uint256": {
        "encoding": "inplace",
        "label": "uint256",
        "numberOfBytes": "32"
      }
    }
  }
}